:020000040800F2
:10000000000002202D0C0008AD880108AF8801080F
:10001000B1880108B3880108B58801080000000014
:10002000000000000000000000000000B788010888
:10003000B988010800000000BB880108BD880108DC
:100040007D0C00087D0C00087D0C00087D0C00086C
:100050007D0C00087D0C00087D0C00087D0C00085C
:100060007D0C00087D0C00087D0C00087D0C00084C
:100070007D0C00087D0C00087D0C00087D0C00083C
:100080007D0C00087D0C00087D0C00087D0C00082C
:100090007D0C00087D0C00087D0C0008C588010857
:1000A0007D0C00087D0C00087D0C00087D0C00080C
:1000B0007D0C00087D0C00087D0C00087D0C0008FC
:1000C0007D0C00087D0C00087D0C00087D0C0008EC
:1000D0007D0C00087D0C00087D0C00087D0C0008DC
:1000E000D78801087D0C00087D0C00087D0C0008F5
:1000F0007D0C00087D0C00087D0C00087D0C0008BC
:100100007D0C00087D0C0008ED8801087D0C0008BE
:100110007D0C00087D0C00087D0C00087D0C00089B
:100120007D0C00087D0C00087D0C00087D0C00088B
:100130007D0C00087D0C00087D0C00087D0C00087B
:100140007D0C00087D0C00087D0C00087D0C00086B
:100150007D0C00087D0C00087D0C00087D0C00085B
:100160007D0C00087D0C00087D0C00087D0C00084B
:100170007D0C00087D0C00087D0C000800000000CC
:080180007D0C00087D0C000855
:1001900081F0004102E000BF83F0004330B54FEA38
:1001A00041044FEA430594EA050F08BF90EA020FA5
:1001B0001FBF54EA000C55EA020C7FEA645C7FEA38
:1001C000655C00F0E2804FEA5454D4EB5555B8BF5B
:1001D0006D420CDD2C4480EA020281EA030382EACC
:1001E000000083EA010180EA020281EA0303362D5E
:1001F00088BF30BD11F0004F4FEA01314FF4801C31
:100200004CEA113102D0404261EB410113F0004F42
:100210004FEA03334CEA133302D0524263EB4303F9
:1002200094EA050F00F0A780A4F10104D5F1200E97
:100230000DDB02FA0EFC22FA05F2801841F10001F2
:1002400003FA0EF2801843FA05F359410EE0A5F1C6
:1002500020050EF1200E012A03FA0EFC28BF4CF0F7
:10026000020C43FA05F3C01851EBE37101F00045AD
:1002700007D54FF0000EDCF1000C7EEB00006EEBBA
:100280000101B1F5801F1BD3B1F5001F0CD3490844
:100290005FEA30004FEA3C0C04F101044FEA44529B
:1002A00012F5800F80F09A80BCF1004F08BF5FEA22
:1002B000500C50F1000041EB045141EA050130BD02
:1002C0005FEA4C0C404141EB010111F4801FA4F1A5
:1002D0000104E9D191F0000F04BF01460020B1FAFA
:1002E00081F308BF2033A3F10B03B3F120020CDA32
:1002F0000C3208DD02F1140CC2F10C0201FA0CF010
:1003000021FA02F10CE002F11402D8BFC2F1200C74
:1003100001FA02F120FA0CFCDCBF41EA0C0190402A
:10032000E41AA2BF01EB0451294330BD6FEA040473
:100330001F3C1CDA0C340EDC04F11404C4F120025E
:1003400020FA04F001FA02F340EA030021FA04F370
:1003500045EA030130BDC4F10C04C4F1200220FAC7
:1003600002F001FA04F340EA0300294630BD21FA05
:1003700004F0294630BD94F0000F83F4801306BFCB
:1003800081F480110134013D4EE77FEA645C18BFBF
:100390007FEA655C29D094EA050F08BF90EA020F56
:1003A00005D054EA000C04BF1946104630BD91EA4E
:1003B000030F1EBF0021002030BD5FEA545C05D151
:1003C0004000494128BF41F0004130BD14F5800490
:1003D0003CBF01F5801130BD01F0004545F0FE4104
:1003E00041F470014FF0000030BD7FEA645C1ABF39
:1003F000194610467FEA655C1CBF0B46024650EA70
:10040000013406BF52EA033591EA030F41F400219B
:1004100030BD00BF90F0000F04BF0021704730B521
:100420004FF4806404F132044FF000054FF00001F6
:1004300050E700BF90F0000F04BF0021704730B5B7
:100440004FF4806404F1320410F0004548BF40428C
:100450004FF000013EE700BF42004FEAE2014FEAE1
:1004600031014FEA02701FBF12F07F4393F07F4FBC
:1004700081F06051704732F07F4208BF704793F0BF
:100480007F4F04BF41F40021704730B54FF46074D2
:1004900001F0004521F000411CE700BF50EA0102D5
:1004A00008BF704730B54FF000050AE050EA01027E
:1004B00008BF704730B511F0004502D5404261EBEE
:1004C00041014FF4806404F132045FEA915C3FF42F
:1004D000D8AE4FF003025FEADC0C18BF03325FEACC
:1004E000DC0C18BF033202EBDC02C2F1200300FA7D
:1004F00003FC20FA02F001FA03FE40EA0E0021FAA2
:1005000002F11444BDE600BF70B54FF0FF0C4CF48F
:10051000E06C1CEA11541DBF1CEA135594EA0C0F41
:1005200095EA0C0F00F0DEF82C4481EA030621EA7C
:100530004C5123EA4C5350EA013518BF52EA0335B7
:1005400041F4801143F4801338D0A0FB02CE4FF069
:100550000005E1FB02E506F00042E0FB03E54FF099
:100560000006E1FB03569CF0000F18BF4EF0010E91
:10057000A4F1FF04B6F5007F64F5407404D25FEA8D
:100580004E0E6D4146EB060642EAC62141EA555140
:100590004FEAC52040EA5E504FEACE2EB4F1FD0C82
:1005A00088BFBCF5E06F1ED8BEF1004F08BF5FEA00
:1005B000500E50F1000041EB045170BD06F00046B2
:1005C00046EA010140EA020081EA0301B4EB5C045F
:1005D000C2BFD4EB0C0541EA045170BD41F4801157
:1005E0004FF0000E013C00F3AB8014F1360FDEBF7C
:1005F000002001F0004170BDC4F10004203C35DA58
:100600000C341BDC04F11404C4F1200500FA05F3DA
:1006100020FA04F001FA05F240EA020001F000427B
:1006200021F0004110EBD37021FA04F642EB0601F1
:100630005EEA430E08BF20EAD37070BDC4F10C041B
:10064000C4F1200500FA04F320FA05F001FA04F2DF
:1006500040EA020001F0004110EBD37041F10001CB
:100660005EEA430E08BF20EAD37070BDC4F12005D6
:1006700000FA05F24EEA020E20FA04F301FA05F23E
:1006800043EA020321FA04F001F0004121FA04F2E6
:1006900020EA020000EBD3705EEA430E08BF20EAB6
:1006A000D37070BD94F0000F0FD101F000464000F0
:1006B00041EB010111F4801F08BF013CF7D041EA72
:1006C000060195F0000F18BF704703F00046520076
:1006D00043EB030313F4801F08BF013DF7D043EA47
:1006E0000603704794EA0C0F0CEA135518BF95EAFD
:1006F0000C0F0CD050EA410618BF52EA4306D1D184
:1007000081EA030101F000414FF0000070BD50EAA2
:10071000410606BF1046194652EA430619D094EA2C
:100720000C0F02D150EA013613D195EA0C0F05D116
:1007300052EA03361CBF104619460AD181EA03016A
:1007400001F0004141F0FE4141F470014FF0000022
:1007500070BD41F0FE4141F4780170BD70B54FF0BD
:10076000FF0C4CF4E06C1CEA11541DBF1CEA13553D
:1007700094EA0C0F95EA0C0F00F0A7F8A4EB05041F
:1007800081EA030E52EA03354FEA013100F0888016
:100790004FEA03334FF0805545EA131343EA1263DF
:1007A0004FEA022245EA111545EA10654FEA002694
:1007B0000EF000419D4208BF964244F1FD0404F54D
:1007C000407402D25B084FEA3202B61A65EB0305A9
:1007D0005B084FEA32024FF480104FF4002CB6EB66
:1007E000020E75EB030E22BFB61A754640EA0C00E6
:1007F0005B084FEA3202B6EB020E75EB030E22BF26
:10080000B61A754640EA5C005B084FEA3202B6EB66
:10081000020E75EB030E22BFB61A754640EA9C0025
:100820005B084FEA3202B6EB020E75EB030E22BFF5
:10083000B61A754640EADC0055EA060E18D04FEAB3
:10084000051545EA16754FEA06164FEAC30343EA53
:1008500052734FEAC2025FEA1C1CC0D111F4801F20
:100860000BD141EA00014FF000004FF0004CB6E719
:1008700011F4801F04BF01430020B4F1FD0C88BFB8
:10088000BCF5E06F3FF6AFAEB5EB030C04BFB6EBC3
:10089000020C5FEA500C50F1000041EB045170BDB6
:1008A0000EF0004E4EEA113114EB5C04C2BFD4EBE3
:1008B0000C0541EA045170BD41F480114FF0000E67
:1008C000013C90E645EA060E8DE60CEA135594EAE3
:1008D0000C0F08BF95EA0C0F3FF43BAF94EA0C0FE6
:1008E0000AD150EA01347FF434AF95EA0C0F7FF45B
:1008F00025AF104619462CE795EA0C0F06D152EAAF
:1009000003353FF4FDAE1046194622E750EA410692
:1009100018BF52EA43067FF4C5AE50EA41047FF4A3
:100920000DAF52EA43057FF4EBAE12E74FF0FF3C08
:1009300006E000BF4FF0010C02E000BF4FF0010CD9
:100940004DF804CD4FEA410C7FEA6C5C4FEA430C52
:1009500018BF7FEA6C5C1BD001B050EA410C0CBFA1
:1009600052EA430C91EA030F02BF90EA020F002003
:10097000704710F1000F91EA030F58BF994208BF6A
:1009800090422CBFD8176FEAE37040F00100704727
:100990004FEA410C7FEA6C5C02D150EA013C07D17E
:1009A0004FEA430C7FEA6C5CD6D152EA033CD3D0C9
:1009B0005DF8040B704700BF8446104662468C46C3
:1009C0001946634600E000BF01B5FFF7B7FF0028F6
:1009D00048BF10F1000F01BD4DF808EDFFF7F4FF1F
:1009E0000CBF012000205DF808FB00BF4DF808EDAA
:1009F000FFF7EAFF34BF012000205DF808FB00BFCD
:100A00004DF808EDFFF7E0FF94BF012000205DF8EE
:100A100008FB00BF4DF808EDFFF7CEFF94BF0120A3
:100A200000205DF808FB00BF4DF808EDFFF7C4FF9C
:100A300034BF012000205DF808FB00BF4FEA410CE5
:100A40007FEA6C5C02D150EA013C0AD14FEA430CC8
:100A50007FEA6C5C02D152EA033C02D14FF0000005
:100A600070474FF0010070474FEA410212F5001243
:100A700015D211D56FF47873B3EB625212D94FEAE5
:100A8000C12343F0004343EA505311F0004F23FACF
:100A900002F018BF404270474FF00000704750EA24
:100AA000013005D111F0004008BF6FF000407047E1
:100AB0004FF00000704700BF53B94AB9002908BF82
:100AC00000281CBF4FF0FF314FF0FF3000F00CB892
:100AD000ADF1080C6DE904CE1BF0A4FFDDF804E0D5
:100AE000DDE9022304B07047704700BF034613F8E6
:100AF000012B002AFBD1181A0138704700000000B2
:100B000001F0FF01102A2BDB10F0070F08D010F8BE
:100B1000013B013A8B422DD010F0070F42B3F6D1C2
:100B2000F0B441EA012141EA014122F007047FF0DB
:100B300000070023F0E80256083C85EA010586EA32
:100B4000010685FA47F5A3FA87F586FA47F6A5FA6E
:100B500087F68EB9EED1F0BC01F0FF0102F007027A
:100B600032B110F8013B013A83EA010313B1F8D125
:100B70000020704701387047002D06BF3546033806
:100B8000073815F0010F07D1013015F4807F02BF3F
:100B9000013015F4C03F0130F0BC0138704700BF90
:100BA0000348044B834202D0034B03B118477047FC
:100BB000641100206411002000000000054806496F
:100BC000091A891001EBD171491002D0034B03B10E
:100BD00018477047641100206411002000000000D5
:100BE00010B5064C237843B9FFF7DAFF044B13B175
:100BF0000448AFF300800123237010BD681100206A
:100C00000000000010FA010808B5054B1BB10549AA
:100C10000548AFF30080BDE80840FFF7CFBF00BF35
:100C2000000000006C11002010FA0108DFF834D039
:100C3000002103E00C4B5B58435004310B480C4B34
:100C400042189A42F6D30B4A02E0002342F8043BD2
:100C5000094B9A42F9D317F0C3FE1CF09BFA17F028
:100C600043FC704700000220D4300208000000203E
:100C70006411002068110020DC1D0020FEE7000048
:100C80002DE9F04F85B00390019202930E9EDDF89E
:100C90004480DDF84C90DDF850B0169FDBE9000190
:100CA00019F098FDA8A3D3E90023FFF7A9FE50BBD4
:100CB0000022A74BDBE90001FFF770FA19F08AFD6B
:100CC000A1A3D3E90023FFF79BFE002837D1002220
:100CD0009F4BDBE90001FFF75FFA19F07BFD9AA358
:100CE000D3E90023FFF78CFE002863D14FF0000A00
:100CF0000E96019ECDF84480CDF84C90DDF808901A
:100D0000DDF854803EE00024019ADDF808C0159D0E
:100D100000E00134DCF80030A3424BD94FF0000E64
:100D200013687345F5D93B6804FB03E305EBC30384
:100D300000200021C3E900010EF1010EF0E70025BB
:100D4000DDF808C0B246019E159801E0F446013571
:100D5000DCF80030AB422CD90021E64633688B42E8
:100D6000F4D93B6805FB031B00EBCB0CDCF804401B
:100D700050F83B2004F10043CCE900230131EDE7BA
:100D80000AF1010AD9F8003053453DD900253368EE
:100D9000AB42F5D93C680AFB045408EBC404DBE918
:100DA0000023D4E90001FFF7AFFBC4E900010135DE
:100DB000EDE75646039B93F900304E2B2AD00022D4
:100DC000634B0F99D1E90001FFF7E6F919F002FD35
:100DD0005DA3D3E90023FFF713FE002840F0F7805E
:100DE00000225B4B0F99D1E90001FFF7D7F919F009
:100DF000F1FC55A3D3E90023FFF702FE002840F0E1
:100E000020814FF0000B8BE10E9EDDF84480DDF871
:100E10004C90CFE700224E4B0F99D1E90001FFF72C
:100E2000BBF919F0D7FC48A3D3E90023FFF7E8FD8D
:100E300090B90022464B0F99D1E90001FFF7AEF9B6
:100E400019F0C8FC40A3D3E90023FFF7D9FD00281F
:100E50003DD14FF0000BB2E04FF0000B2FE00AF154
:100E6000010A019B1B68534527D900253368AB4213
:100E7000F5D93C680BFB04A4159B03EBC404D8F81C
:100E8000003005FB03A3109A02EBC301D9F8003030
:100E90000BFB0353129A02EBC303D3E90023D1E9FE
:100EA0000001FFF731FB02460B46D4E90001FFF7D2
:100EB00075F9C4E900010135D8E70BF1010B029B7C
:100EC0001B685B4540F233814FF0000AC9E74FF0E1
:100ED000000B2FE00AF1010A019B1B68534527D93B
:100EE00000253368AB42F5D93C680BFB04A4159B85
:100EF00003EBC404D8F8003005FB03A3109A02EBFF
:100F0000C301D9F800300BFB0353129A02EBC30361
:100F1000D3E90023D1E90001FFF7F6FA02460B46B8
:100F2000D4E90001FFF738F9C4E900010135D8E739
:100F30000BF1010B029B1B685B4540F2F8804FF000
:100F4000000AC9E7AFF30080D97DDAF5D0F2BE3AE6
:100F50000000F03F0AF1010A019B1B6853452CD9A0
:100F600000253368AB42F5D93C680BFB04A4159B04
:100F700003EBC404D8F8003005FB03A3109A02EB7E
:100F8000C303D3E900230F99D1E90001FFF7BCFAAD
:100F9000D9F800300BFB0353129A02EBC303D3E9D9
:100FA0000023FFF7B1FA02460B46D4E90001FFF730
:100FB000F5F8C4E900010135D3E70BF1010B029B01
:100FC0001B685B4540F2B3804FF0000AC4E74FF066
:100FD000000B2FE00AF1010A019B1B68534527D93A
:100FE00000253368AB42F5D93C680BFB04A4159B84
:100FF00003EBC404D8F800300AFB0353109A02EB49
:10100000C301D9F800300BFB0353129A02EBC30360
:10101000D3E90023D1E90001FFF776FA02460B4637
:10102000D4E90001FFF7BAF8C4E900010135D8E7B7
:101030000BF1010B029B1B685B4578D94FF0000A4E
:10104000CAE74FF0000B2FE00AF1010A019B1B6871
:10105000534527D900253368AB42F5D93C680BFBD3
:1010600004A4159B03EBC404D8F800300AFB035317
:10107000109A02EBC301D9F800300BFB0353129A0C
:1010800002EBC303D3E90023D1E90001FFF73CFAE7
:1010900002460B46D4E90001FFF77EF8C4E90001DF
:1010A0000135D8E70BF1010B029B1B685B453ED96C
:1010B0004FF0000ACAE70AF1010A019B1B68534579
:1010C0002CD900253368AB42F5D93C680BFB04A44E
:1010D000159B03EBC404D8F800300AFB0353109AA5
:1010E00002EBC303D3E900230F99D1E90001FFF715
:1010F0000BFAD9F800300BFB0353129A02EBC3032F
:10110000D3E90023FFF700FA02460B46D4E90001B9
:10111000FFF744F8C4E900010135D3E70BF1010BF7
:10112000029B1B685B4502D94FF0000AC5E705B07A
:10113000BDE8F08F10B50446064B40F8303B01F097
:10114000F7FA04F1140001F0F3FA204615F032F832
:10115000204610BDB8FA010810B50446FFF7EAFFB3
:10116000204619F0BCFA204610BD00002DE9F041E0
:1011700092B0002900F0F6800E464368012B40F340
:10118000F6800446002904DB03EBD372B1EB620F57
:101190000FDD05F0B3FE0123029340F2111301931A
:1011A000744B0093744B0022022105F029FE044683
:1011B000D9E093FBF1F701FB17370FB93D462EE05D
:1011C00005F09CFE012302934FF48A730193694B4F
:1011D0000093694B0022032105F012FE0446C2E091
:1011E000A36813F8082024E0042222E0A3685A55DB
:1011F00031E0E36813F90820002D02DB63689D42AB
:1012000033DB05F07BFE01230293712301935B4BDB
:101210000093594B0022022105F0F2FD013561686F
:101220008B1BAB4224DD15EB0608DDD44145D7DC32
:101230000422002D02DB63689D42D7DB05F05EFED1
:1012400001230293622301934C4B00934A4B0022EB
:10125000022105F0D5FDB8F1000F04DB6368984565
:10126000C7DB0422C8E70422C6E7E3685A55D5E77E
:101270000BA801F0A0FA616804A801F09CFA05E04F
:1012800039460BA801F02CFB20BB01376368BB4239
:101290005CDD002F08DBE368DB57002BF0D0012B6F
:1012A0003ED0B3F1FF3F25D005F028FE0123029385
:1012B0004FF49B7301932F4B00932F4B00221B2164
:1012C00005F09EFD044604A801F032FA0BA801F0D7
:1012D0002FFA48E005F012FE012302934FF49473B5
:1012E0000193244B0093244B00221B2105F088FD21
:1012F0000446E8E7394604A801F0F2FA0028C4D011
:1013000005F0FCFD0123029340F22D130193194BCC
:101310000093194B00221B2105F072FD0446D2E711
:10132000394604A801F0DCFA0028AED005F0E6FD4D
:10133000012302934FF4997301930E4B00930E4BCC
:1013400000221B2105F05CFD0446BCE70BA904F15B
:10135000140001F077FA04A904F1300001F072FAE8
:101360000024B0E70024204612B0BDE8F08100243C
:10137000F9E700BF44FA010828FA010860FA0108F9
:101380002DE9F04393B0002900F04B810E464368ED
:101390008B4200F04B81012B40F34A810446002927
:1013A00001DB8B420FDA05F0A9FD012302934FF414
:1013B000A77301939F4B00939F4B0022022105F0DE
:1013C0001FFD04462EE1084619F09DF9804630467F
:1013D00019F099F98146002309E0A068C05C11E08A
:1013E00004200FE0E168895609F802100133B34286
:1013F00012DA1A4608EB0301002BF1DB6068834226
:10140000EBDB04200870002B04DB61688B42E9DB16
:101410000421E9E70421E7E700271CE0A3685A5DFF
:1014200022E0042220E0A368DA552FE0E3685A574F
:10143000002F02DB63689F4231DB05F05FFD012373
:101440000293712301937D4B00937B4B0022022179
:1014500005F0D6FC013763689D1BBD4233DDBD1925
:10146000DFD4AB42DADC0422002F02DB63689F4248
:10147000D9DB05F043FD01230293622301936F4BF7
:1014800000936D4B0022022105F0BAFC002D04DB15
:1014900063689D42CADB0422CAE70422C8E7E36806
:1014A000DA55D7E7A3685A5526E005F027FD012352
:1014B000029371230193614B00935F4B0022022141
:1014C00005F09EFC01356368AB4222DDEB1A334424
:1014D00018F80320002D02DB63689D42E2DB05F073
:1014E0000DFD0123029362230193544B0093524B51
:1014F0000022022105F084FC6368EB1A334419F9D9
:101500000320002DD1DB63689D42CEDAE3685A5593
:10151000D8E7B9F1000F02D0484619F0E2F8B8F167
:10152000000F02D0404619F0DCF861680BA801F00A
:1015300042F9616804A801F03EF9002505E029465A
:101540000BA801F0CDF920BB01356368AB425CDD2F
:10155000002D08DBE3685B57002BF0D0012B3ED059
:10156000B3F1FF3F25D005F0C9FC0123029340F2FF
:10157000811301932F4B00932F4B00221C2105F068
:101580003FFC044604A801F0D3F80BA801F0D0F802
:1015900048E005F0B3FC0123029340F2731301937A
:1015A000244B0093244B00221C2105F029FC044607
:1015B000E8E7294604A801F093F90028C4D005F013
:1015C0009DFC012302934FF4BC730193194B0093CC
:1015D000194B00221C2105F013FC0446D2E72946D2
:1015E00004A801F07DF90028AED005F087FC0123A6
:1015F000029340F27D1301930E4B00930E4B002299
:101600001C2105F0FDFB0446BCE70BA904F1140006
:1016100001F018F904A904F1300001F013F90024D5
:10162000B0E70024204613B0BDE8F0830024F9E7BA
:101630000024F7E744FA010828FA010860FA0108D3
:1016400010B5044614F0F8FD2046054B40F8143B55
:1016500001F0A8F804F1300001F0A4F8204610BD14
:10166000B8FA010830B585B00D1E0FDB04462946D7
:10167000143001F063F8294604F1300001F05EF8FF
:101680002946204614F0A0FD05B030BD05F036FC1B
:10169000012302936A230193034B0093034B00221F
:1016A000032105F0ADFBEFE744FA010828FA010831
:1016B00038B504460D4614F0CDFD2046074B40F8E2
:1016C000143B01F06FF804F1300001F06BF829468B
:1016D0002046FFF7C7FF204638BD00BFB8FA010813
:1016E00000B585B0002902DB43688B420FDC05F0B2
:1016F00005FC0123029381230193314B0093314B6D
:101700000022022105F07CFB05B05DF804FB92B1DC
:10171000012A3ED0B2F1FF3F24D005F0EFFB0123B8
:10172000029396230193264B0093264B002203211C
:1017300005F066FBE8E713460A4600F1140114F0D1
:10174000CBFD08B90020DFE705F0D8FB01230293A9
:10175000882301931A4B00931A4B0022172105F09E
:101760004FFBD1E713460A4600F1300114F0B4FDF7
:1017700008B90020C8E705F0C1FB012302938D23BF
:1017800001930F4B00930F4B0022172105F038FBFC
:10179000BAE713460A4600F1300114F09DFD08B97E
:1017A0000020B1E705F0AAFB0123029392230193E5
:1017B000034B0093034B0022172105F021FBA3E705
:1017C00044FA010828FA010830B585B00D1E03DB84
:1017D00004464368AB420EDC05F090FB0123029304
:1017E000BF2301931A4B00931A4B0022022105F0EC
:1017F00007FB05B030BD2A4600F1300114F0BCFDF6
:1018000068B105F07BFB01230293C3230193104BC6
:101810000093104B0022192105F0F2FAE9E70023AA
:101820002A4604F11401204614F056FD08B90020A0
:10183000DFE705F063FB01230293C6230193044B0A
:101840000093044B0022192105F0DAFAD1E700BF1A
:1018500044FA010828FA010870B584B00D1E04DBB3
:10186000044616464368AB420EDC05F047FB0123F5
:101870000293D42301931A4B00931A4B00220221A6
:1018800005F0BEFA04B070BD2A4600F1140114F050
:1018900073FD68B105F032FB01230293D823019355
:1018A0000F4B00930F4B0022192105F0A9FAE9E72D
:1018B00033462A4604F13001204614F00DFD08B9E4
:1018C0000020DFE705F01AFB01230293DB230193DD
:1018D000034B0093034B0022192105F091FAD1E745
:1018E00044FA010828FA010800B585B0002902DB96
:1018F00043688B420FDC05F001FB01230293E823D0
:101900000193154B0093154B0022022105F078FA44
:1019100005B05DF804FBC368DBB15A56B2F1FF3F76
:101920000FD0012A11D005F0E9FA01230293EF2329
:101930000193094B0093094B0022192105F060FA2D
:10194000E6E701225A540020E2E7FF225A54002021
:10195000DEE70020DCE700BF44FA010828FA0108AE
:1019600010B584B0002906DB44688C4203DD002AF0
:1019700001DB94420EDC05F0C1FA01230293FE2341
:101980000193084B0093084B0022022105F038FA1E
:1019900004B010BD13460A4600F1140114F02AFDEC
:1019A000F6E700BF44FA010828FA010838B50446F2
:1019B0000D461431143000F045FF05F1300104F1FB
:1019C000300000F03FFF002038BD38B504468842A3
:1019D00006D00D4614F072FC29462046FFF7E6FFBC
:1019E000204638BD70B584B004460E46002500E0A0
:1019F00001356368AB421BDD002DF9DBA3685B5D3D
:101A0000002BF5D1324629462046FFF769FE002813
:101A1000EED005F073FA0123029340F2D71301933D
:101A2000394B0093394B0022172105F0E9F968E0A2
:101A3000002500E001356368AB421BDD002DF9DBBA
:101A4000A3685B5D012BF5D1324629462046FFF79E
:101A500047FE0028EED005F051FA0123029340F230
:101A6000E1130193284B0093284B0022172105F026
:101A7000C7F946E0002500E001356368AB421BDD95
:101A8000002DF9DBA3685B5D022BF5D132462946B8
:101A90002046FFF725FE0028EED005F02FFA01239F
:101AA000029340F2EB130193174B0093174B002264
:101AB000172105F0A5F924E0002506E03246294665
:101AC0002046FFF70DFE60B901356368AB4217DDB4
:101AD000002DF3DBA3685B5D042BEFD0032BF3D168
:101AE000ECE705F00BFA0123029340F2F5130193A2
:101AF000054B0093054B0022172105F081F900E00A
:101B0000002004B070BD00BF44FA010828FA0108A3
:101B100008B50021FFF766FF08BD000010B50446B8
:101B2000064B40F8303B00F003FE04F1140000F0D7
:101B3000FFFD204614F03EFB204610BDF0FA0108E0
:101B400010B50446FFF7EAFF204618F0C8FD20460E
:101B500010BD00002DE9F04192B0002900F0F680A0
:101B60000E464368012B40F3F6800446002904DB4F
:101B700003EBD372B1EB620F0FDD05F0BFF9012368
:101B8000029340F201130193744B0093744B0022B3
:101B9000022105F035F90446D9E093FBF1F701FB8A
:101BA00017370FB93D462EE005F0A8F9012302933F
:101BB0004FF482730193694B0093694B0022032118
:101BC00005F01EF90446C2E0A36813F8082024E0DB
:101BD000042222E0A3685A5531E0E36813F9082093
:101BE000002D02DB63689D4233DB05F087F901239A
:101BF0000293712301935B4B0093594B0022022106
:101C000005F0FEF8013561688B1BAB4224DD15EB56
:101C10000608DDD44145D7DC0422002D02DB6368D1
:101C20009D42D7DB05F06AF90123029362230193F9
:101C30004C4B00934A4B0022022105F0E1F8B8F129
:101C4000000F04DB63689845C7DB0422C8E7042261
:101C5000C6E7E3685A55D5E70BA800F0ACFD61680C
:101C600004A800F0A8FD05E0394604A800F038FEFD
:101C700020BB01376368BB425CDD002F08DBE368F3
:101C8000DB57002BF0D0012B3ED0B3F1FF3F25D026
:101C900005F034F9012302934FF4937301932F4B12
:101CA00000932F4B00221B2105F0AAF8044604A83C
:101CB00000F03EFD0BA800F03BFD48E005F01EF9EA
:101CC000012302934FF48C730193244B0093244B14
:101CD00000221B2105F094F80446E8E739460BA8DA
:101CE00000F0FEFD0028C4D005F008F9012302939E
:101CF00040F21D130193194B0093194B00221B2135
:101D000005F07EF80446D2E739460BA800F0E8FD5E
:101D10000028AED005F0F2F8012302934FF491733E
:101D200001930E4B00930E4B00221B2105F068F827
:101D30000446BCE70BA904F1140000F083FD04A9DC
:101D400004F1300000F07EFD0024B0E700242046BE
:101D500012B0BDE8F0810024F9E700BFC8FA01081D
:101D600028FA010860FA01082DE9F04393B0002930
:101D700000F04B810E4643688B4200F04B81012BF3
:101D800040F34A810446002901DB8B420FDA05F05B
:101D9000B5F8012302934FF49F7301939F4B009377
:101DA0009F4B0022022105F02BF804462EE1084645
:101DB00018F0A9FC8046304618F0A5FC81460023A7
:101DC00009E0A068C05C11E004200FE0E1688956DA
:101DD00009F802100133B34212DA1A4608EB030184
:101DE000002BF1DB60688342EBDB04200870002BE2
:101DF00004DB61688B42E9DB0421E9E70421E7E7C2
:101E000000271CE0A3685A5D22E0042220E0A368BA
:101E1000DA552FE0E3685A57002F02DB63689F42D0
:101E200031DB05F06BF801230293712301937D4BA5
:101E300000937B4B0022022104F0E2FF013763682C
:101E40009D1BBD4233DDBD19DFD4AB42DADC042279
:101E5000002F02DB63689F42D9DB05F04FF80123B6
:101E60000293622301936F4B00936D4B002202217A
:101E700004F0C6FF002D04DB63689D42CADB042228
:101E8000CAE70422C8E7E368DA55D7E7A3685A55DA
:101E900026E005F033F80123029371230193614B8F
:101EA00000935F4B0022022104F0AAFF0135636812
:101EB000AB4222DDEB1A334418F80320002D02DB7D
:101EC00063689D42E2DB05F019F801230293622367
:101ED0000193544B0093524B0022022104F090FFD7
:101EE0006368EB1A334419F90320002DD1DB6368D2
:101EF0009D42CEDAE3685A55D8E7B9F1000F02D017
:101F0000484618F0EEFBB8F1000F02D0404618F03A
:101F1000E8FB61680BA800F04EFC616804A800F0C3
:101F20004AFC002505E0294604A800F0D9FC20BBA6
:101F300001356368AB425CDD002D08DBE3685B576D
:101F4000002BF0D0012B3ED0B3F1FF3F25D004F0A1
:101F5000D5FF0123029340F2711301932F4B00939D
:101F60002F4B00221C2104F04BFF044604A800F074
:101F7000DFFB0BA800F0DCFB48E004F0BFFF01230F
:101F8000029340F263130193244B0093244B0022ED
:101F90001C2104F035FF0446E8E729460BA800F0B1
:101FA0009FFC0028C4D004F0A9FF012302934FF442
:101FB000B4730193194B0093194B00221C2104F0B8
:101FC0001FFF0446D2E729460BA800F089FC002831
:101FD000AED004F093FF0123029340F26D130193FE
:101FE0000E4B00930E4B00221C2104F009FF044607
:101FF000BCE70BA904F1140000F024FC04A904F1CF
:10200000300000F01FFC0024B0E70024204613B08D
:10201000BDE8F0830024F9E70024F7E7C8FA0108D7
:1020200028FA010860FA010810B5044614F004F912
:102030002046054B40F8143B00F0B4FB04F130009F
:1020400000F0B0FB204610BDF0FA010830B585B0B5
:102050000D1E0FDB04462946143000F06FFB2946A5
:1020600004F1300000F06AFB2946204614F0ACF879
:1020700005B030BD04F042FF0123029369230193B0
:10208000034B0093034B0022032104F0B9FEEFE75A
:10209000C8FA010828FA010838B504460D4614F0BC
:1020A000D9F82046074B40F8143B00F07BFB04F1C5
:1020B000300000F077FB29462046FFF7C7FF204697
:1020C00038BD00BFF0FA010800B585B0002902DB79
:1020D00043688B420FDC04F011FF0123029380233D
:1020E0000193314B0093314B0022022104F088FE12
:1020F00005B05DF804FB92B1012A3ED0B2F1FF3F7A
:1021000024D004F0FBFE0123029395230193264B78
:102110000093264B0022032104F072FEE8E71346E9
:102120000A4600F1300114F0D7F808B90020DFE7C3
:1021300004F0E4FE01230293872301931A4B0093DA
:102140001A4B0022182104F05BFED1E713460A4621
:1021500000F1140114F0C0F808B90020C8E704F039
:10216000CDFE012302938C2301930F4B00930F4B61
:102170000022182104F044FEBAE713460A4600F193
:10218000140114F0A9F808B90020B1E704F0B6FE74
:102190000123029391230193034B0093034B0022ED
:1021A000182104F02DFEA3E7C8FA010828FA010857
:1021B00030B585B00D1E03DB04464368AB420EDC30
:1021C00004F09CFE01230293BE2301931A4B00935B
:1021D0001A4B0022022104F013FE05B030BD2A463E
:1021E00000F1140114F0C8F868B104F087FE01236F
:1021F0000293C2230193104B0093104B002219212C
:1022000004F0FEFDE9E700232A4604F130012046F0
:1022100014F062F808B90020DFE704F06FFE012334
:102220000293C5230193044B0093044B0022192110
:1022300004F0E6FDD1E700BFC8FA010828FA01085A
:1022400070B584B00D1E04DB044616464368AB42ED
:102250000EDC04F053FE01230293D32301931A4BA7
:1022600000931A4B0022022104F0CAFD04B070BD95
:102270002A4600F1300114F07FF868B104F03EFE08
:1022800001230293D72301930F4B00930F4B00229E
:10229000192104F0B5FDE9E733462A4604F114019B
:1022A000204614F019F808B90020DFE704F026FEF4
:1022B00001230293DA230193034B0093034B002283
:1022C000192104F09DFDD1E7C8FA010828FA010898
:1022D00000B585B0002902DB43688B420FDC04F0B7
:1022E0000DFE01230293E7230193154B0093154B39
:1022F0000022022104F084FD05B05DF804FBC368F0
:10230000DBB15A56B2F1FF3F0FD0012A11D004F0D1
:10231000F5FD01230293EE230193094B0093094B32
:1023200000221A2104F06CFDE6E701225A54002035
:10233000E2E7FF225A540020DEE70020DCE700BF7E
:10234000C8FA010828FA010838B504460D461431C8
:10235000143000F077FA05F1300104F1300000F09C
:1023600071FA002038BD38B50446884206D00D46C3
:1023700013F0A4FF29462046FFF7E6FF204638BDAC
:1023800070B584B004460E46002500E00135636850
:10239000AB421BDD002DF9DBA3685B5D002BF5D1A3
:1023A000324629462046FFF78FFE0028EED004F083
:1023B000A5FD0123029340F2C7130193394B00930B
:1023C000394B0022182104F01BFD68E0002500E0D5
:1023D00001356368AB421BDD002DF9DBA3685B5D53
:1023E000012BF5D1324629462046FFF76DFE002825
:1023F000EED004F083FD0123029340F2D113019348
:10240000284B0093284B0022182104F0F9FC46E0E9
:10241000002500E001356368AB421BDD002DF9DBD0
:10242000A3685B5D022BF5D1324629462046FFF7B3
:102430004BFE0028EED004F061FD0123029340F230
:10244000DB130193174B0093174B0022182104F064
:10245000D7FC24E0002506E0324629462046FFF757
:1024600033FE60B901356368AB4217DD002DF3DB45
:10247000A3685B5D042BEFD0032BF3D1ECE704F0F2
:102480003DFD0123029340F2E5130193054B0093B8
:10249000054B0022182104F0B3FC00E0002004B03A
:1024A00070BD00BFC8FA010828FA010808B500216C
:1024B000FFF766FF08BD10B50446D0F8A00020B1B4
:1024C00018F00FF90023C4F8A030D4F8A40020B10C
:1024D00018F007F90023C4F8A430D4F8A80020B1FC
:1024E00018F0FFF80023C4F8A830002010BD70B524
:1024F00004460E461546FFF7DEFF266065600020A5
:1025000070BD10B504460830FFF79AF804F1540086
:10251000FFF78AFD0021C4F8A010C4F8A410C4F885
:10252000A8100A462046FFF7E2FF204610BD0368C8
:102530004068834202D900FB00F0704703FB03F0C0
:102540007047F8B5044616461D46069F21B1084659
:1025500004F10801FFF739FA25B104F154012846C6
:10256000FFF701FF4EB1D4F8A01031B1226802FB91
:1025700002F2D20030461AF0ABFE4FB1D4F8A410EC
:1025800031B1226802FB02F2D20038461AF0A0FEF6
:10259000079B53B1D4F8A8503DB12046FFF7C7FFC1
:1025A000C200294607981AF093FE0020F8BDF8B53E
:1025B000044617461D46069E11B10830FFF705FA7E
:1025C00025B1294604F15400FFF7CDFE5FB1D4F8E0
:1025D000A03033B3226802FB02F2D2003946D4F8AD
:1025E000A0001AF075FE5EB1D4F8A43043B322689F
:1025F00002FB02F2D2003146D4F8A4001AF068FEC1
:10260000079B63B1D4F8A8304BB3D4F8A860204638
:10261000FFF78DFFC200079930461AF059FE0020DF
:10262000F8BD206800FB00F0B0F1805F05D2C0006B
:1026300018F069F8C4F8A000CCE74FF0FF30F7E7D6
:10264000206800FB00F0B0F1805F05D2C00018F0F8
:102650005AF8C4F8A400CAE74FF0FF30F7E7204665
:10266000FFF765FFB0F1805F05D2C00018F04BF8AE
:10267000C4F8A800C9E74FF0FF30F7E700B583B012
:10268000D1F8A430D1F8A8200192009301F15403AD
:10269000D1F8A0200831FFF78AFF03B05DF804FBF2
:1026A00038B50446884206D00D46FFF704FF294698
:1026B0002046FFF7E3FF204638BD10B50446FFF77C
:1026C000FAFE04F15400FFF729FA04F10800FEF7BE
:1026D00031FD204610BD000019B102680A600020DB
:1026E000704700B585B004F009FC012302938723ED
:1026F0000193054B0093054B0022032104F080FB5E
:1027000005B05DF804FB00BF00FB010828FA0108D2
:1027100010B50446406818B117F0E3FF002363606A
:10272000206818B117F0DDFF00232360002010BDE2
:1027300010B50446FFF7ECFF204610BD30B585B05C
:102740000C1E0CDB0546FFF7E3FF0023AB60AC611A
:102750009C421FDD104B9C4210D8A40010E004F0F6
:10276000CDFB01230293702301930C4B00930C4B80
:102770000022032104F044FB05B030BD4FF0FF34CC
:10278000204617F0C0FF2860204617F0BCFF6860A5
:102790000020F1E70020EFE7FEFFFF1F00FB01082C
:1027A00028FA010810B50446002101604160FFF7D6
:1027B000C5FF204610BD10B50446002303604360EA
:1027C000FFF7BCFF204610BD38B58B6883608B696E
:1027D00083610A6872B31A4A934212D89B000D466D
:1027E0000446184617F08FFF20600023A069984226
:1027F0000ADD2968226851F8231042F823100133BA
:10280000F4E74FF0FF33EAE70D4B984201D8800020
:1028100001E04FF0FF3017F076FF60600023A269FF
:102820009A420ADD6968626851F8231042F8231061
:102830000133F4E7002303604360002038BD00BF8C
:10284000FEFFFF1F38B50446884206D00D46FFF74D
:102850005FFF29462046FFF7B7FF204638BD826854
:1028600032B370B405684668336855F823308B423C
:1028700021DC02F18043013B56F8233055F8233028
:102880008B4202DD013A002003E0501E70BC70470D
:102890001846531E8342F9DD831803EBD3735B1094
:1028A00056F8234055F824408C42F1DD1A46F0E7F3
:1028B0004FF0FF3070474FF0FF30E7E738B5044680
:1028C0000D46FFF7CCFF2368626852F8200053F8EA
:1028D0002030AB4200D138BD4FF0FF30FBE70000A5
:1028E00010B584B08368826993420EDB04F006FB66
:1028F00001230293AA230193124B0093124B00224F
:102900000D2104F07DFA04B010BD0446026842F8BF
:102910002310FFF7A4FFA368421C9A4209DA6168FA
:1029200003F18042013A51F8222041F82320013B73
:10293000F2E762680130A36842F820300133A360F7
:102940000020E0E700FB010828FA010838B504463A
:102950000D46FFF784FF636853F82030226852F871
:102960002320AA4233D1002200E00132A168914223
:1029700008DD656855F822109942F6DD013945F801
:102980002210F2E70130A268824209DD616800F19D
:102990008042013A51F8205041F822500130F2E7CC
:1029A000A268511E994207DD21685A1C51F8220085
:1029B00041F823001346F3E7236802F18042013A0D
:1029C0004FF0FF3143F82210A3680B44A3600020AE
:1029D00038BD00002DE9F04184B004468846154614
:1029E000FFF73DFF064629462046FFF738FF2368DC
:1029F000626852F8267053F82710414505D152F805
:102A0000202053F82220AA420FD004F077FA0123A5
:102A10000293E02301930F4B00930F4B00220E21F2
:102A200004F0EEF904B0BDE8F08143F827202368F4
:102A3000626852F8202043F82210636853F8262079
:102A400053F8201043F82610636843F82020002034
:102A5000E8E700BF00FB010828FA01082DE9F04F64
:102A600087B093460A6801921B6803930023009382
:102A700001E0059B0093009A01998A4272DA039B58
:102A8000194601FB02F808EB02030BEBC3030293A8
:102A9000D3E90067531E04931C46002C13DB08EB9C
:102AA00004030BEBC303D3E9000102460B46FDF719
:102AB0002BFD02460B4630463946FDF76DFB0646B8
:102AC0000F46013CE9E70022002330463946FDF776
:102AD000ABFF58B13046394618F02AF8029BC3E9DB
:102AE0000001009B013305939A4614E0CBE900678F
:102AF000109B002B3BD0009B0133109A136036E0F3
:102B0000029BD3E9002330463946FDF727FEC9E989
:102B100000010AF1010A019B9A45AADA039B03FB13
:102B20000AF5009B05EB03090BEBC909D9E900671E
:102B3000049C002CE4DB08EB04010BEBC1012B1916
:102B40000BEBC303D3E90023D1E90001FDF7DCFC63
:102B500002460B4630463946FDF71EFB06460F4639
:102B6000013CE6E7109B13B10023109A136007B0F5
:102B7000BDE8F08F0369C26802FB011103EBC103DA
:102B8000D3E900017047D0F800C0ACF1180CDCF8B4
:102B900000C06044FFF7EEBF2DE9F04180461646C5
:102BA0001F460024D8F80430A34215DDD8F80830B9
:102BB000A34211DDD8F81050D8F80C3003FB0443C1
:102BC00005EBC30532463B46D5E90001FDF7E6FAC1
:102BD000C5E900010134E5E70020BDE8F081D0F847
:102BE00000C0ACF1500CDCF800C06044FFF7D4BF6B
:102BF00008B50368DB6C984728B10346026852F8B1
:102C00000C0C184408BD0020FCE7D0F800C0ACF163
:102C1000140CDCF800C06044FFF7EABF30B48568EC
:102C200043689D4215D1002300E001339D4213DD2E
:102C30000269591C52F8211052F82340621C91423B
:102C40000CDCF2D1C26852F824209A42EDD0002068
:102C500000E0002030BC70470120FBE70020F9E7CE
:102C6000D0F800C0ACF11C0CDCF800C06044FFF7E9
:102C7000D5BF08B503689B68984728B1034602682A
:102C800052F80C0C184408BD0020FCE7D0F800C036
:102C9000ACF1140CDCF800C06044FFF7EABFA0F10F
:102CA0000400FFF7E6BF2DE9F0418AB004460D4667
:102CB0001646984609A92846FFF70EFD08A9304692
:102CC000FFF70AFD23685F6B9DF854300793149B50
:102CD0000693139B0593129B0493119B0393109BE4
:102CE0000293CDF80480089B0093B368099AA96801
:102CF0002046B8470AB0BDE8F081F0B58DB0044673
:102D00000D4609921F460BA92846FFF7E5FC2368EC
:102D10005E6B9DF85C300793169B0693159B05939D
:102D2000149B0493139B0393129B0293019709AB8B
:102D3000009301230B9AA9682046B0470DB0F0BD5F
:102D4000F0B58DB00446099115461F460BA91046F3
:102D5000FFF7C2FC23685E6B9DF85C300793169BFF
:102D60000693159B0593149B0493139B0393129B4B
:102D7000029301970B9B0093AB6809AA012120469F
:102D8000B0470DB0F0BD10B50446006908B117F0AA
:102D9000A8FC0023236110BDD0F800C0ACF1100CDA
:102DA000DCF800C06044FFF7EEBF000010B5044639
:102DB000064B03F10C020260B4334361037E012B26
:102DC00001D0204610BDFFF7DEFFFAE774FF0108CF
:102DD000D0F800C0ACF10C0CDCF800C06044FFF788
:102DE000E5BF10B50446FFF7E1FF204617F077FC7A
:102DF000204610BDD0F800C0ACF10C0CDCF800C0CF
:102E00006044FFF7EEBF10B50446C06808B117F084
:102E100068FC0023E360206908B117F062FC00231E
:102E20002361A06908B117F05CFC0023A36122684C
:102E300052F80C2C1444237110BDD0F800C0ACF132
:102E4000100CDCF800C06044FFF7DDBF10B504468D
:102E50000A4B03F10C020260B433C361406918B13C
:102E600017F03FFC0023636194F82030012B01D060
:102E7000204610BD2046FFF7C6FFF9E7B001020863
:102E8000D0F800C0ACF10C0CDCF800C06044FFF7D7
:102E9000DDBF10B50446FFF7D9FF204617F01FFC31
:102EA000204610BDD0F800C0ACF10C0CDCF800C01E
:102EB0006044FFF7EEBF2DE9F04F87B004908846DD
:102EC00092461F460024119D129E00E00134544595
:102ED0000CDA00235345F9DA06FB043205EBC20293
:102EE00000200021C2E900010133F3E7D8F808000F
:102EF0000AFB00F0B0F1805F12D2C00017F003FCB3
:102F000083460022D8F808300AFB03F393420ADD17
:102F10000BEBC20300200021C3E900010132F1E7FD
:102F20004FF0FF30EAE700265B46B3461E463BE023
:102F3000039B01330393D8F8083003998B4231DDAA
:102F4000049B1B69D8F800204FEA810952F8212020
:102F500005990A4403EBC203D3E90034CDE90034F8
:102F600000255545E4DAD8F8084005FB04B406EB23
:102F7000C404D8F8003053F80910109B03FB051166
:102F800007EBC101DDE90023D1E90001FDF7BCFA3F
:102F900002460B46D4E90001FDF700F9C4E900013F
:102FA0000135DEE70BF1010BD8F808305B450BDD8E
:102FB000D8F8003053F82B30049AD26802FB03F3A0
:102FC000059300230393B6E7002399460096BB467A
:102FD00029E00136564524DA00245445F9DA129BDB
:102FE00003FB0645119B03EBC505109B03FB067114
:102FF0000BEBC101D8F8083004FB0393009A02EBF5
:10300000C303D3E90023D1E90001FDF77DFA0246AD
:103010000B46D5E90001FDF7C1F8C5E9000101340F
:10302000DBE709F10109D8F808304B4505DDD8F890
:10303000003053F829700026CCE7DDF800B0BBF172
:10304000000F02D0584617F04CFB002007B0BDE837
:10305000F08FA0F11400FFF72EBFF8B506464268C6
:10306000836803FB02F3B3F1805F11D2D80017F03D
:103070004AFB0022B168736803FB01F393420ADD47
:1030800000EBC20300240025C3E900450132F1E74B
:103090004FF0FF30EBE7002700E00137B368BB4299
:1030A0001BDD3369BC4653F8272033690CF101015D
:1030B00053F821309342F0DDB169F36853F82230C0
:1030C000B46804FB037300EBC30301EBC201D1E955
:1030D0000045C3E900450132E7E7F8BDD0F800C07C
:1030E000ACF1540CDCF800C06044FFF7B6BF38B553
:1030F00004464368806800FB03F0B0F1805F01D2B2
:10310000C00001E04FF0FF3017F0FDFA054663689C
:10311000A26802FB03F2D20021691AF0D9F828460E
:1031200038BDD0F800C0ACF1540CDCF800C06044ED
:10313000FFF7DDBF38B50446036853F80C3C034481
:103140001B79012B2CD14368806800FB03F0B0F1A0
:10315000805F01D2C00001E04FF0FF3017F0D3FADA
:1031600005466368A26802FB03F2D20021691AF0E7
:10317000AFF81C2017F0B7FA6168A268134B03F18F
:103180000C040460B433436141608260C260056135
:1031900001230376B8B1036853F80C3C184438BDDA
:1031A0001C2017F0A0FA6568A26821690023037645
:1031B000064B03F10C040460B43343614560826044
:1031C000C2600161E6E70020E9E700BF74FF010883
:1031D000D0F800C0ACF1140CDCF800C06044FFF77C
:1031E000A9BF000038B50446036853F80C3C0344FB
:1031F0001B79012B2CD14368806800FB03F0B0F1F0
:10320000805F01D2C00001E04FF0FF3017F07BFA81
:1032100005466368A26802FB03F2D20021691AF036
:1032200057F8202017F05FFA6268A3684260836055
:10323000C3600561124B03F10C02026003F1D80276
:1032400082616C33436101230377B8B1143038BD18
:10325000202017F048FA6168A368226900240477E7
:1032600041608360C3600261054B03F10C020260A0
:1032700003F1D80282616C334361E6E70020E6E7A0
:1032800080000208A0F11400FFF7ACBF00000000AE
:10329000426883689A422FD170B5054600266B6854
:1032A000B3422BDD002400E00134A64222DD2B696D
:1032B000EA6806FB024203EBC203D3E9000117F000
:1032C00089FA0FA3D3E90023FDF7AEFB80B92B6980
:1032D000EA6804FB026203EBC203D3E9000117F0C2
:1032E00079FA07A3D3E90023FDF79EFB0028DBD082
:1032F000002070BD0136D2E7002070470120F8E7BA
:103300001C5289980501B03CD0F800C0ACF11C0CEF
:10331000DCF800C06044FFF7BBBF00000000000005
:103320002DE9F84304460E460A9F002A69D0154647
:103330000022654BDDE90801FCF72EFF17F04AFA81
:103340005FA3D3E90023FDF75BFB50BB00225E4B7C
:10335000DDE90801FCF722FF17F03CFA58A3D3E996
:103360000023FDF74DFB002831D14FF00008AB687A
:10337000434540F3A0802369E1682A6852F8282079
:1033800006FB012103EBC10107EBC809DDE90823B6
:10339000D1E90001FDF7B8F8C9E9000108F1010819
:1033A000E5E70023AA689A4240F385802269E16834
:1033B000286850F8230006FB010107EBC30C02EB61
:1033C000C102D2E90001CCE900010133EAE70021A2
:1033D000AB688B426FDDD4F810C0E0682B6853F8FF
:1033E000213006FB00300CEBC00307EBC10ED3F815
:1033F00004805CF8302008F10043CEE9002301315D
:10340000E6E70022304BDDE90801FCF7C5FE17F0C6
:10341000E1F92BA3D3E90023FDF7F2FA18BB002250
:10342000294BDDE90801FCF7B9FE17F0D3F924A315
:10343000D3E90023FDF7E4FA38BB0025A368AB42CB
:1034400039DD2369E16806FB015103EBC10107EB9C
:10345000C508DDE90823D1E90001FDF755F8C8E901
:1034600000010135EAE70021A3688B4223DD2369CF
:10347000E26806FB021207EBC10003EBC203D3E9CB
:103480000023C0E900230131EEE70021A3688B424D
:1034900011DD2569E06806FB001005EBC00307EBB2
:1034A000C10CD3F804E055F830200EF10043CCE90C
:1034B00000230131EAE70020BDE8F883AFF3008084
:1034C000D97DDAF5D0F2BE3A0000F03FD0F800C066
:1034D000ACF1280CDCF800C06044FFF721BF00000D
:1034E0002DE9F84305460E4614460A9F0022364B46
:1034F000DDE90801FCF750FE17F06CF930A3D3E9C1
:103500000023FDF77DFA48BB00222F4BDDE90801BF
:10351000FCF744FE17F05EF929A3D3E90023FDF779
:103520006FFA00282FD14FF00008A368434544DD0F
:103530002B69226852F82810EA6802FB016103EB4C
:10354000C10107EBC809DDE90823D1E90001FCF757
:10355000DBFFC9E9000108F10108E6E70023A268E2
:103560009A422ADD2A69216851F82310E86800FB95
:10357000016107EBC30C02EBC102D2E90001CCE907
:1035800000010133EBE70021A3688B4215DDD5F87C
:1035900010C0236853F82100EB6803FB00600CEBBC
:1035A000C00307EBC10ED3F804805CF8302008F1AB
:1035B0000043CEE900230131E6E70020BDE8F883AF
:1035C000D97DDAF5D0F2BE3A0000F03FD0F800C065
:1035D000ACF12C0CDCF800C06044FFF781BF0000A8
:1035E0002DE9F84304460D460A9F1646002A00F0CE
:1035F000C8800022B04BDDE90801FCF7CDFD17F0D3
:10360000E9F8ABA3D3E90023FDF7FAF988B9002262
:10361000A94BDDE90801FCF7C1FD17F0DBF8A4A315
:10362000D3E90023FDF7ECF9002838D14FF0000969
:103630008CE04FF0000E17E09A420DDDE26852F880
:103640002320AA4202D00022002307E0A26902EB55
:10365000C303D3E9002301E00022002307EBCC0CD5
:10366000CCE900230EF1010EB368734540F34281AB
:103670003368726852F82EC053F82C30206998468F
:1036800050F8233008F1010250F822209A42D3DD8D
:10369000E16851F82310A942CEDA0133F2E74FF086
:1036A000000E1CE09A4210DDE26852F82320AA4284
:1036B00002D0002108460AE0A26902EBC301486873
:1036C00052F8331000F1004001E00021084607EBFA
:1036D000C8080A460346C8E900230EF1010EB36884
:1036E000734540F307813368726852F82E8053F8AF
:1036F000283020699C4650F823300CF1010250F824
:1037000022209A42CEDDE16851F82310A942C9DA9D
:103710000133F2E79A4211DDE26852F82320AA420F
:1037200002D0002000210BE0A26902EBC301DDE919
:103730000823D1E90001FCF7E7FE01E000200021A9
:1037400007EBC808C8E9000109F10109B3684B4556
:1037500040F3D0803368726852F8298053F82830DB
:1037600020699C4650F823300CF1010250F82220C9
:103770009A42CFDDE16851F82310A942CADA013339
:10378000F2E700224C4BDDE90801FCF705FD17F0DC
:1037900021F847A3D3E90023FDF732F980B90022CD
:1037A000454BDDE90801FCF7F9FC17F013F840A3DD
:1037B000D3E90023FDF724F980BB4FF0000985E031
:1037C0004FF0000C17E09A420DDDE26852F823201A
:1037D000AA4202D00022002307E0A26902EBC30341
:1037E000D3E9002301E00022002307EBC000C0E979
:1037F00000230CF1010CA36863457BDD266960465C
:1038000056F82C30421C56F822209A42DBDDE16843
:1038100051F82310A942D6DA0133F3E74FF0000C38
:103820001CE09A4210DDE26852F82320AA4202D03E
:1038300000218E460AE0A16901EBC302526851F8EB
:10384000331002F1004E01E000218E4607EBC0006C
:103850000A467346C0E900230CF1010CB3686345C6
:1038600048DDD4F810E060465EF82C30421C5EF86B
:1038700022209A42D5DDE16851F82310A942D0DA1E
:103880000133F3E79A4219DDE26852F82320AA4295
:1038900002D00020002113E0A26902EBC301DDE9A0
:1038A0000823D1E90001FCF72FFE09E0AFF3008007
:1038B000D97DDAF5D0F2BE3A0000F03F00200021B9
:1038C00007EBC808C8E9000109F10109B3684B45D5
:1038D00010DD2069C84650F8293008F1010250F87F
:1038E00022209A42CEDDE16851F82310A942C9DABC
:1038F0000133F2E70020BDE8F88300BFD0F800C034
:10390000ACF1280CDCF800C06044FFF769BE000091
:103910002DE9F04707461546DDF8288003698946FA
:1039200053F821600022624BDDE90801FCF734FC0A
:1039300016F050FF5CA3D3E90023FDF761F878B9D6
:1039400000225B4BDDE90801FCF728FC16F042FF82
:1039500055A3D3E90023FDF753F880BB002470E0A2
:1039600000240AE0BA690136013408EBC30102EB16
:10397000C000D0E90023C1E900233B6909F101023D
:1039800053F82230B3427EDDAB68A3427BDDFB6897
:10399000304653F826102A686B6853F8243052F8E2
:1039A00023209142DED0914207DD013408EBC303AE
:1039B00000200021C3E90001DFE70136DDE7002434
:1039C0000EE0BA69013602EBCC01013408EBC30307
:1039D000D1F804E052F83C000EF10041C3E90001C7
:1039E0003B6909F1010253F82230B3424BDDAB6869
:1039F000A34248DDFB68B44653F826102A686B687A
:103A000053F8243052F823209142DAD0914207DD56
:103A1000013408EBC30300200021C3E90001DFE704
:103A20000136DDE7BA69013602EBC001013408EB6B
:103A3000C30ADDE90823D1E90001FCF765FDCAE905
:103A400000013B6909F1010253F82230B3421ADD4B
:103A5000AB68A34217DDFB68304653F826102A688E
:103A60006B6853F8243052F823209142DAD0914207
:103A700007DD013408EBC30300200021C3E9000186
:103A8000DFE70136DDE7AB68A3420ADD6B6853F878
:103A9000243008EBC30300200021C3E900010134F6
:103AA000F1E70020BDE8F087D97DDAF5D0F2BE3A23
:103AB0000000F03FD0F800C0ACF12C0CDCF800C0E6
:103AC0006044FFF725BF00002DE9F04F85B00546A3
:103AD0008B4614460393DDF850A09DF85830012B17
:103AE00032D0DDE9120116F075FEB7A3D3E9002349
:103AF000FCF786FF002840F08E820022B44BDDE9FF
:103B00001201FCF74BFB16F065FEAFA3D3E90023CF
:103B1000FCF776FF002840F099820022AC4BDDE9EB
:103B20001201FCF739FB16F055FEA7A3D3E90023D9
:103B3000FCF766FF002840F0C9824FF000080194AE
:103B4000039CDDF85490A7E2DDE9120116F042FE75
:103B50009DA3D3E90023FCF753FF08BB00229C4B35
:103B6000DDE91201FCF71AFB16F034FE96A3D3E947
:103B70000023FCF745FF50BB0022954BDDE9120105
:103B8000FCF70AFB16F026FE8FA3D3E90023FCF70F
:103B900037FF00284ED14FF00008DDF8549033E095
:103BA0000026DDF80CC0159F00E00136664541DABD
:103BB0000023DBF808209A42F7DD07FB06320AEB08
:103BC000C20200200021C2E900010133F1E7002711
:103BD000DDF80CC0159E00E0013767452ADA0021A8
:103BE000DBF808308B42F7DD06FB07180AEBC80E3E
:103BF000DEF804005AF8382000F10043CEE9002333
:103C00000131EDE708F10108039B984512DA00271E
:103C1000DBF80830BB42F5DD09FB08760AEBC60687
:103C2000DDE91223D6E90001FCF76EFCC6E90001CC
:103C30000137EDE734B30022654BDDE90E01FCF7F7
:103C4000ABFA16F0C7FD60A3D3E90023FCF7D8FE5A
:103C5000002840F0088100225D4BDDE90E01FCF7F1
:103C60009DFA16F0B7FD58A3D3E90023FCF7C8FE70
:103C7000002840F040814FF00009CDF808B0CDF8A1
:103C800050A0C1E10022524BDDE90E01FCF784FA9D
:103C900016F0A0FD4CA3D3E90023FCF7B1FEA8B9B0
:103CA00000224B4BDDE90E01FCF778FA16F092FD8D
:103CB00045A3D3E90023FCF7A3FE002849D14FF028
:103CC0000009CDF808B0DDF844B0C5E04FF00008B9
:103CD000CDF808B0DDF844B034E0019B0133019326
:103CE000029A936801998B422ADD536853F8213078
:103CF000159901FB0839126852F82330EF6807FB69
:103D000003F70024AB68A342E7DD0AEBC9062B6981
:103D1000E11903EBC1010BFB0843109A02EBC3034B
:103D2000D3E90023D1E90001FCF7EEFB02460B4684
:103D3000D6E90001FCF732FAC6E900010134E1E7F7
:103D400008F10108039B984580F2B1830023019399
:103D5000C6E74FF00009CDF808B0DDF844B03BE00D
:103D6000019B01330193029A936801998B4231DDE3
:103D7000536853F82130159901FB0938126852F83D
:103D80002330EF6807FB03F70024AB68A342E7DDAD
:103D90000AEBC8062B69E11903EBC1010BFB0943D0
:103DA000109A02EBC303D3E90023D1E90001FCF729
:103DB000ABFB02460B46D6E90001FCF7EDF9C6E97C
:103DC00000010134E1E700BFD97DDAF5D0F2BE3A57
:103DD0000000F03F09F10109039B994580F26783D8
:103DE00000230193BFE7019B01330193029A93687B
:103DF00001998B422EDD536853F82130159901FB50
:103E00000938126852F82330EF6807FB03F70024E3
:103E1000AB68A342E7DD0AEBC8062B69E11903EBA7
:103E2000C101DDE90E23D1E90001FCF76DFB0BFBBD
:103E30000943109A02EBC303D3E90023FCF764FBA8
:103E400002460B46D6E90001FCF7A8F9C6E90001D5
:103E50000134DDE709F10109039B994580F22783CD
:103E600000230193C2E74FF00009CDF808B03BE012
:103E7000019B01330193029A936801998B4231DDD2
:103E8000536853F82130159901FB093B126852F829
:103E90002330EA6802FB03F80026A368B342E7DD9B
:103EA000636853F826300AEBCB072A69216851F87A
:103EB0002310414402EBC101119A02FB0933109A0D
:103EC00002EBC303D3E90023D1E90001FCF71CFB9B
:103ED00002460B46D7E90001FCF760F9C7E900018B
:103EE0000136DAE709F10109039B994580F2DF8287
:103EF00000230193BFE74FF00008CDF808B03BE086
:103F0000019B01330193029A936801998B4231DD41
:103F1000536853F82130159901FB083B126852F899
:103F20002330EA6802FB03F90026A368B342E7DD09
:103F3000636853F826300AEBCB072A69216851F8E9
:103F40002310494402EBC101119A02FB0833109A75
:103F500002EBC303D3E90023D1E90001FCF7D4FA53
:103F600002460B46D7E90001FCF716F9C7E9000144
:103F70000136DAE708F10108039B984580F2978241
:103F800000230193BFE7019B01330193029A9368D9
:103F900001998B4236DD536853F82130159901FBA6
:103FA000093B126852F82330EA6802FB03FA002743
:103FB000A368BB42E7DD636853F82760149B03EBFB
:103FC000CB082B69226852F82610514403EBC1013B
:103FD000DDE90E23D1E90001FCF796FA119B03FB02
:103FE0000966109B03EBC606D6E90023FCF78CFAA2
:103FF00002460B46D8E90001FCF7D0F8C8E90001F9
:104000000137D5E709F10109039B994580F24F82F9
:1040100000230193BAE70026DDF80CC0159F00E0ED
:104020000136664552DA0022DBF808309342F7DDAC
:10403000DBF8003053F8223007FB06330AEBC303EA
:1040400000200021C3E900010132EDE70026A1466E
:10405000039F159800E00136BE4236DA0021DBF8F6
:1040600008308B42F7DD00FB06F202EB010C0AEB95
:10407000CC0EDBF8003053F8214022440AEBC20496
:10408000DEF804E05AF83C200EF10043C4E90023B6
:104090000131E4E708F10108A0453FDA0027DBF829
:1040A0000830BB42F6DDDBF8003053F8276009FB2F
:1040B00008660AEBC606DDE91223D6E90001FCF723
:1040C00023FAC6E900010137E9E74C4644B3002270
:1040D000B14BDDE90E01FCF75FF816F07BFBACA3FA
:1040E000D3E90023FCF78CFC002840F00381002278
:1040F000A94BDDE90E01FCF751F816F06BFBA4A308
:10410000D3E90023FCF77CFC002840F03B814FF012
:104110000009CDF808B0CDF850A0C2E1019CD5E768
:1041200000229D4BDDE90E01FCF736F816F052FB3C
:1041300097A3D3E90023FCF763FCA8B90022964BB0
:10414000DDE90E01FCF72AF816F044FB90A3D3E951
:104150000023FCF755FC002849D14FF00009CDF8A9
:1041600008B0DDF844B0BEE04FF00008CDF808B06C
:10417000DDF844B034E0019B01330193029A936867
:1041800001998B422ADD1368526852F8212053F8B6
:104190002270159B03FB0879EB6807FB03F70024EB
:1041A000AB68A342E7DD0AEBC9062B69E11903EB13
:1041B000C1010BFB0843109A02EBC303D3E90023B0
:1041C000D1E90001FCF7A0F902460B46D6E900014F
:1041D000FBF7E4FFC6E900010134E1E708F101085B
:1041E000039B984580F2638100230193C6E74FF05B
:1041F0000008CDF808B0DDF844B034E0019B01338D
:104200000193029A936801998B422ADD13685268E0
:1042100052F8212053F82270159B03FB0879EB68B4
:1042200007FB03F70024AB68A342E7DD0AEBC906EE
:104230002B69E11903EBC1010BFB0843109A02EB58
:10424000C303D3E90023D1E90001FCF75DF902467D
:104250000B46D6E90001FBF79FFFC6E900010134D8
:10426000E1E708F10108039B984580F220810023D3
:104270000193C6E7019B01330193029A9368019968
:104280008B422EDD1368526852F8212053F82270B9
:10429000159B03FB0978EB6807FB03F70024AB6869
:1042A000A342E7DD0AEBC8062B69E11903EBC10164
:1042B000DDE90E23D1E90001FCF726F90BFB0943E8
:1042C000109A02EBC303D3E90023FCF71DF9024661
:1042D0000B46D6E90001FBF761FFC6E90001013496
:1042E000DDE709F10109039B994580F2E080002395
:1042F0000193C2E74FF00009CDF808B03BE0019B05
:1043000001330193029A936801998B4231DD13685E
:10431000526852F8212053F82230159A02FB093BCB
:10432000EA6803FB02F80026A368B342E7DD63688E
:1043300053F826300AEBCB072A69216851F823107D
:10434000414402EBC101119A02FB0933109A02EBBE
:10435000C303D3E90023D1E90001FCF7D5F80246F5
:104360000B46D7E90001FBF719FFC7E90001013649
:10437000DAE709F10109039B994580F2988000234F
:104380000193BFE74FF00009CDF808B042E000BF4D
:10439000D97DDAF5D0F2BE3A0000F03F019B01333F
:1043A0000193029A936801998B4231DD1368526838
:1043B00052F8212053F82230159A02FB093BEA6893
:1043C00003FB02F80026A368B342E7DD636853F8F5
:1043D00026300AEBCB072A69216851F823104144A3
:1043E00002EBC101119A02FB0933109A02EBC303DD
:1043F000D3E90023D1E90001FCF786F802460B4619
:10440000D7E90001FBF7C8FEC7E900010136DAE78A
:1044100009F10109039B994549DA00230193C0E79B
:10442000019B01330193029A936801998B4236DD17
:104430001368526852F8212053F82230159A02FB73
:10444000093BEA6803FB02FA0027A368BB42E7DDE9
:10445000636853F82760149B03EBCB082B69226831
:1044600052F82610514403EBC101DDE90E23D1E9D6
:104470000001FCF749F8119B03FB0966109B03EB55
:10448000C606D6E90023FCF73FF802460B46D8E9FA
:104490000001FBF783FEC8E900010137D5E709F108
:1044A0000109039B994502DA00230193BBE7002031
:1044B00005B0BDE8F08F00BFD0F800C0ACF1480CEB
:1044C000DCF800C06044FFF7FFBA00000000000005
:1044D0002DE9F04F83B00746884614460193DDF876
:1044E00048B0DDE9100116F075F9B9A3D3E900234E
:1044F000FCF786FA08BB0022B74BDDE91001FBF799
:104500004DFE16F067F9B2A3D3E90023FCF778FA61
:1045100048BB0022B04BDDE91001FBF73DFE16F071
:1045200059F9ABA3D3E90023FCF76AFA00284BD171
:104530004FF00009DDF84CA041E00025DDF804C093
:10454000139E00E0013565453EDA0023A2689A42D9
:10455000F8DD06FB05320BEBC20200200021C2E9A8
:1045600000010133F2E70026DDF804C0139D00E0EE
:104570000136664528DA0021A3688B42F8DD05FB89
:1045800006190BEBC90EDEF804005BF8392000F1C8
:104590000043CEE900230131EEE70AFB09650BEB8E
:1045A000C505DDE91023D5E90001FBF7ADFFC5E93D
:1045B00000010136A368B342EFDC09F10109019B58
:1045C000994501DA0026F5E70022834BDDE90C016D
:1045D000FBF7E2FD16F0FEF87DA3D3E90023FCF71C
:1045E0000FFA90B900227C4BDDE90C01FBF7D6FDF8
:1045F00016F0F0F876A3D3E90023FCF701FA0028BF
:104600004DD14FF0000AB946D5E04FF0000AB94647
:104610003EE0009B01330093D8F80830009A9342A3
:1046200034DDD8F8043053F822700026A368B34272
:10463000EFDD636853F82630139A02FB0A350BEB63
:10464000C505D8F8002052F82710D9F80C202068AA
:1046500050F8230002FB0101D9F8103003EBC1012F
:104660000F9B03FB0A730E9A02EBC303D3E90023EB
:10467000D1E90001FBF748FF02460B46D5E90001EE
:10468000FBF78CFDC5E900010136CFE70AF1010A0D
:10469000019B9A4580F2958000230093BCE74FF080
:1046A000000AB9463EE0009B01330093D8F8083079
:1046B000009A934234DDD8F8043053F82270002673
:1046C000A368B342EFDD636853F82630139A02FB08
:1046D0000A350BEBC505D8F8002052F82710D9F899
:1046E0000C20206850F8230002FB0101D9F810309B
:1046F00003EBC1010F9B03FB0A730E9A02EBC3038A
:10470000D3E90023D1E90001FBF7FEFE02460B4688
:10471000D5E90001FBF740FDC5E900010136CFE70F
:104720000AF1010A019B9A454BDA00230093BDE789
:10473000009B01330093D8F80830009A934238DD8B
:10474000D8F8043053F822700026A368B342EFDD96
:10475000636853F82630139A02FB0A350BEBC50544
:10476000D8F8002052F82710D9F80C20206850F80B
:10477000230002FB0101D9F8103003EBC101DDE990
:104780000C23D1E90001FBF7BFFE0F9B03FB0A736B
:104790000E9A02EBC303D3E90023FBF7B5FE0246F2
:1047A0000B46D5E90001FBF7F9FCC5E9000101362C
:1047B000CBE70AF1010A019B9A4502DA0023009334
:1047C000B9E7002003B0BDE8F08F00BFAFF3008071
:1047D000D97DDAF5D0F2BE3A0000F03FD0F800C043
:1047E000ACF14C0CDCF800C06044FFF771BE000077
:1047F0002DE9F04F85B004460391CDE90023DDE9B2
:1048000010AB129FDDF84C805046594615F0E2FF80
:10481000A1A3D3E90023FCF7F3F8F8B90022A04BD9
:1048200050465946FBF7BAFC15F0D4FF9AA3D3E9DA
:104830000023FCF7E5F828BB0022994B5046594667
:10484000FBF7AAFC15F0C6FF93A3D3E90023FCF7FE
:10485000D7F8002845D14FF000093DE00025039E20
:1048600000E00135B5423CDA002362689A42F8DD87
:1048700008FB053207EBC20200200021C2E900015B
:104880000133F2E70026DDF80CC000E00136664592
:1048900027DA002163688B42F8DD08FB061507EB79
:1048A000C50057F83520456805F10043C0E90023ED
:1048B0000131EFE708FB096507EBC50552465B468A
:1048C000D5E90001FBF720FEC5E900010136636868
:1048D000B342EFDC09F10109039B994501DA002697
:1048E000F5E700226E4BDDE9005628463146FBF71E
:1048F00053FC15F06FFF68A3D3E90023FCF780F8A1
:1049000088B90022664B28463146FBF747FC15F074
:1049100061FF61A3D3E90023FCF772F800283DD1C1
:104920004FF00009ABE04FF0000931E00AF1010A55
:10493000A36853452ADD2369D34653F82A602369C7
:104940000BF1010253F82230B342EFDDE36853F874
:10495000265008FB095507EBC505A36903EBC60103
:104960000F9B03FB09A30E9A02EBC303D3E90023B9
:10497000D1E90001FBF7C8FD02460B46D5E900016D
:10498000FBF70CFCC5E900010136D8E709F1010984
:10499000039B994579DA4FF0000AC9E74FF0000907
:1049A00031E00AF1010AA36853452ADD2369D346A1
:1049B00053F82A6023690BF1010253F82230B34205
:1049C000EFDDE36853F8265008FB095507EBC505F2
:1049D000A36903EBC6010F9B03FB09A30E9A02EB2D
:1049E000C303D3E90023D1E90001FBF78DFD0246A3
:1049F0000B46D5E90001FBF7CFFBC5E90001013605
:104A0000D8E709F10109039B99453EDA4FF0000A06
:104A1000C9E70AF1010AA36853452EDD2369D3468D
:104A200053F82A6023690BF1010253F82230B34294
:104A3000EFDDE36853F8265008FB095507EBC50581
:104A4000A36903EBC601DDE90023D1E90001FBF70F
:104A50005BFD0F9B03FB09A30E9A02EBC303D3E993
:104A60000023FBF751FD02460B46D5E90001FBF799
:104A700095FBC5E900010136D4E709F10109039B63
:104A8000994502DA4FF0000AC5E7002005B0BDE8FD
:104A9000F08F00BFAFF30080D97DDAF5D0F2BE3AD7
:104AA0000000F03FD0F800C0ACF1400CDCF800C0D2
:104AB0006044FFF79DBE00002DE9F04F85B004462D
:104AC0000391CDE90023DDE910AB129FDDF84C80A6
:104AD0005046594615F07EFEA1A3D3E90023FBF70B
:104AE0008FFFF8B90022A04B50465946FBF756FB02
:104AF00015F070FE9AA3D3E90023FBF781FF28BBD2
:104B00000022994B50465946FBF746FB15F062FED2
:104B100093A3D3E90023FBF773FF002845D14FF09F
:104B200000093DE00025039E00E00135B5423CDA76
:104B30000023A2689A42F8DD08FB053207EBC202A7
:104B400000200021C2E900010133F2E70026DDF870
:104B50000CC000E00136664527DA0021A3688B42CD
:104B6000F8DD08FB061507EBC50057F8352045684A
:104B700005F10043C0E900230131EFE708FB0965B7
:104B800007EBC50552465B46D5E90001FBF7BCFCC7
:104B9000C5E900010136A368B342EFDC09F1010960
:104BA000039B994501DA0026F5E700226E4BDDE90B
:104BB000005628463146FBF7EFFA15F00BFE68A3C6
:104BC000D3E90023FBF71CFF88B90022664B284677
:104BD0003146FBF7E3FA15F0FDFD61A3D3E90023AD
:104BE000FBF70EFF00283DD14FF00009ABE04FF07E
:104BF000000931E00AF1010AA36853452ADD23695F
:104C0000D34653F82A5023690BF1010253F822309E
:104C1000AB42EFDD08FB09A607EBC606A16901EB75
:104C2000C501E36853F825300F9A02FB09330E9A49
:104C300002EBC303D3E90023D1E90001FBF764FCD5
:104C400002460B46D6E90001FBF7A8FAC6E90001C7
:104C50000135D8E709F10109039B994579DA4FF04D
:104C6000000AC9E74FF0000931E00AF1010AA36820
:104C700053452ADD2369D34653F82A5023690BF1A3
:104C8000010253F82230AB42EFDD08FB09A607EB27
:104C9000C606A16901EBC501E36853F825300F9AF8
:104CA00002FB09330E9A02EBC303D3E90023D1E9D7
:104CB0000001FBF729FC02460B46D6E90001FBF791
:104CC0006BFAC6E900010135D8E709F10109039B38
:104CD00099453EDA4FF0000AC9E70AF1010AA368D4
:104CE00053452EDD2369D34653F82A5023690BF12F
:104CF000010253F82230AB42EFDD08FB09A607EBB7
:104D0000C606A36903EBC501DDE90023D1E9000173
:104D1000FBF7FAFBE36853F825300F9A02FB0933DF
:104D20000E9A02EBC303D3E90023FBF7EDFB024627
:104D30000B46D6E90001FBF731FAC6E9000101355F
:104D4000D4E709F10109039B994502DA4FF0000A03
:104D5000C5E7002005B0BDE8F08F00BFAFF30080CD
:104D6000D97DDAF5D0F2BE3A0000F03FD0F800C0AD
:104D7000ACF1440CDCF800C06044FFF79DBE0000BD
:104D80002DE9F04F87B005460F4693460493DDE9C1
:104D900014894046494615F01DFD8FA3D3E9002331
:104DA000FBF72EFE18BB00228D4B40464946FBF711
:104DB000F5F915F00FFD88A3D3E90023FBF720FEDA
:104DC00070BB0022864B40464946FBF7E5F915F0DB
:104DD00001FD81A3D3E90023FBF712FE002856D181
:104DE0004FF0000A00950297169E179F37E00024A7
:104DF000DDF810E0169EDDF85CC000E0013474457B
:104E000045DA0023DBF808209A42F7DD0CFB043278
:104E100006EBC20200200021C2E900010133F1E7E4
:104E20000026DDF810E01698DDF85CC000E00136E1
:104E300076452CDA0021DBF808308B42F7DD0CFBDD
:104E4000061900EBC908D8F8044050F8392004F1DD
:104E50000043C8E900230131EDE70AF1010A049B90
:104E60009A4512DA0025DBF80830AB42F5DD07FB86
:104E70000A5406EBC40442464B46D4E90001FBF752
:104E800043FBC4E900010135EDE7009D029FDDE928
:104E9000100115F09FFC50A3D3E90023FBF7B0FDF0
:104EA000002840F093806B680593B3F1805F08D2CF
:104EB000D80015F028FC064600230293B846D946D0
:104EC00070E04FF0FF30F4E70021029AAC461298F0
:104ED000139FD8F808308B420FDD07FB0214D8F877
:104EE000003053F8213006EBC30300EBC404D4E9CF
:104EF0000045C3E900450131EBE7654600239B46C9
:104F0000CDF80C8012E0169B03EBCA0ADDE91023F2
:104F1000DDE90001FBF7F8FA02460B46DAE9000189
:104F2000FBF73CF9CAE900010BF1010BD9F8083095
:104F30005B452DDDD9F8043053F82BA0D9F80030AB
:104F400053F82A302F69984657F82340002200234F
:104F5000CDE9002308F1010357F82330A342D2DD45
:104F6000AB6903EBC401EB6853F8243006EBC303D1
:104F7000D3E90023D1E90001FBF7C6FA02460B464C
:104F8000DDE90001FBF70AF9CDE900010134E1E7B1
:104F9000DDF80C80169B179A03EBC2031693029B55
:104FA00001330293029B049A93420BDA0023059C7F
:104FB000A34289DA06EBC30200200021C2E9000106
:104FC0000133F5E716B1304615F08BFB002007B032
:104FD000BDE8F08FAFF30080D97DDAF5D0F2BE3AAC
:104FE0000000F03FD0F800C0ACF14C0CDCF800C081
:104FF0006044FFF7C5BE00002DE9F04F8BB00446BA
:10500000884603929A469DF870500595DDE9140193
:1050100015F0E0FBBEA3D3E90023FBF7F1FC002869
:1050200032D0012D49D0DDE9180115F0D3FBB8A32A
:10503000D3E90023FBF7E4FC002840F0B480002211
:10504000B54BDDE91801FBF7A9F815F0C3FBB0A3D8
:10505000D3E90023FBF7D4FC002840F0BF800022F6
:10506000AD4BDDE91801FBF797F815F0B3FBA8A3EA
:10507000D3E90023FBF7C4FC002840F0BC840026E1
:105080001A9FDDF86C90C9E0D4F804B00BFB0AF568
:10509000B5F1805FC0F0DC804FF0FF3015F033FBDE
:1050A000814600239D4240F3D58009EBC3020020D6
:1050B0000021C2E900010133F4E7DDE9180115F030
:1050C00089FB93A3D3E90023FBF79AFC10BB0022D2
:1050D000914BDDE91801FBF761F815F07BFB8CA320
:1050E000D3E90023FBF78CFC58BB00228A4BDDE997
:1050F0001801FBF751F815F06DFB85A3D3E90023E8
:10510000FBF77EFC002840F0768400261A9FDDF82D
:105110006C9032E000241A9D1B9E0DE006FB0432C9
:1051200005EBC20200200021C2E900010133D8F8DA
:1051300008209A42F2DC0134544580F25C8400235A
:10514000F5E700261A9DDDF86CC000E001365645F3
:1051500080F251840021D8F808308B42F6DD0CFB38
:10516000061405EBC400476855F8342007F10043E6
:10517000C0E900230131EEE70136564580F23B8459
:105180000025D8F80830AB42F6DD09FB065407EBE2
:10519000C404DDE91823D4E90001FBF7B5F9C4E93B
:1051A00000010135EDE700241A9D1B9E00E001344B
:1051B000544580F220840022D8F808309342F6DD6E
:1051C000D8F8003053F8223006FB043305EBC30354
:1051D00000200021C3E900010132EDE700261A9DFD
:1051E000DDF86CC000E00136564580F204840020F2
:1051F000D8F808308342F6DDD8F8003053F8201094
:105200000CFB061105EBC104676855F8312007F166
:105210000043C4E900230130EAE70136564580F235
:10522000EA830025D8F80830AB42F6DDD8F8003024
:1052300053F8254009FB064407EBC404DDE91823B5
:10524000D4E90001FBF760F9C4E900010135E9E7A1
:10525000E80023E7039B002B00F03681BAF1010F31
:1052600005D0BAF1805F59D24FEACA0058E0002356
:10527000CDF808B0CDF810809846CDF818A0DDF82C
:105280000CA0DDF858B001E008F10108DAF80830A8
:10529000434540F3E281DAF8043053F828500BEB31
:1052A000C503D3E90023CDE900231046194615F0C4
:1052B00091FA17A3D3E90023FBF7A2FB0028E3D15F
:1052C000DAF8003053F8253022691F4652F823508F
:1052D00023697A1C53F82230AB42D5DDE36853F8DA
:1052E000256009EBC606A36903EBC501DDE90023D0
:1052F000D1E90001FBF708F902460B46D6E90001A7
:10530000FAF74CFFC6E900010135E1E7AFF3008091
:10531000D97DDAF5D0F2BE3A0000F03F4FF0FF3011
:1053200015F0F1F9089000230293CDF818B0CDF8EC
:105330001C90CDF82480804661E00135CDE90067FE
:10534000554518DA0BFB054208EBC50309EBC20211
:10535000D2E90001C3E9000115F03CFA06460F4608
:1053600002460B46DDE90001FBF75EFB0028E4D0B6
:10537000DDE90067E1E72646049CDDE9000115F060
:1053800029FAB9A3D3E90023FBF73AFB002833D16C
:10539000039B1B6853F826302269009352F8237050
:1053A000DDF818B0DDF81C9000E001372369009AA1
:1053B000013253F82230BB421EDD00265645F4DA96
:1053C000E36853F827500BFB065509EBC505A369A5
:1053D00003EBC70108EBC603D3E90023D1E90001C1
:1053E000FBF792F802460B46D5E90001FAF7D6FE24
:1053F000C5E900010136E1E7029B01330293039AFC
:10540000936802998B420EDD536853F821600022A5
:105410000023CDE90023002504943446DDF858909C
:10542000DDF85CB08CE7DDF818B0DDF81C90DDF835
:105430002480089B13B1184615F053F9059B012BE6
:1054400000F02781DDE9180115F0C4F986A3D3E93E
:105450000023FBF7D5FA002840F008820022844B95
:10546000DDE91801FAF798FE04460D4615F0B2F989
:105470007DA3D3E90023FBF7C3FA002840F01D8287
:1054800000227B4BDDE91801FAF788FE15F0A2F93E
:1054900075A3D3E90023FBF7B3FA002840F03C8260
:1054A0002046294615F096F96FA3D3E90023FBF7B0
:1054B000A7FA002840F099820024CDF808A0DA4627
:1054C000CB46DDF868905EE2BAF1010F05D0BAF183
:1054D000805F43D24FEACA0042E00026CDF800B018
:1054E000CB46CDF80880CDF80CA000E00136A368CB
:1054F000B34240F3BF80B246169B03EBC603D3E929
:1055000000894046494615F065F957A3D3E90023C1
:10551000FBF776FA0028E9D1236953F8265023696E
:105520000AF1010253F82230AB42DFDDE36853F8A1
:1055300025700BEBC707A36903EBC50142464B4639
:10554000D1E90001FAF7E0FF02460B46D7E9000176
:10555000FAF724FEC7E900010135E0E74FF0FF301C
:1055600015F0D1F800230293CDF810B0CDF81890C3
:105570000646CDF81C8061E00135554518DA0BFB75
:10558000054206EBC50307EBC202D2E90001C3E9FD
:10559000000115F01FF98046894602460B46DDE9F9
:1055A0000001FBF741FA0028E6D1CDE90089E3E7E5
:1055B000039CDDE9000115F00DF92BA3D3E90023CD
:1055C000FBF71EFA002832D12369029A009253F8A1
:1055D0002290DDF810B0069F01E009F1010923696E
:1055E000009A013253F822304B4520DD4FF000087D
:1055F000D045F2DAE36853F829500BFB085507EB66
:10560000C505A36903EBC90106EBC803D3E9002371
:10561000D1E90001FAF778FF02460B46D5E900010F
:10562000FAF7BCFDC5E9000108F10108E0E716B191
:10563000304615F056F8029B01330293A368029A94
:1056400093421FDD00200021CDE9000100250394D5
:105650001446169FDDF85CB08FE7DDF808B0DDF882
:105660001080DDF818A0E9E6D97DDAF5D0F2BE3A6F
:105670000000F03FD946DDF800B0DDF80880DDF825
:105680000CA0DBE6DDF810B0DDF81890DDF81C802A
:10569000D4E6DDE9180115F09DF8B7A3D3E900239E
:1056A000FBF7AEF9002834D10022B54BDDE9180133
:1056B000FAF772FD04460D4615F08CF8AEA3D3E957
:1056C0000023FBF79DF900284AD10022AC4BDDE90D
:1056D0001801FAF763FD15F07DF8A7A3D3E90023BD
:1056E000FBF78EF9002868D12046294615F072F89C
:1056F000A1A3D3E90023FBF783F9002840F07581CB
:1057000000245F46CDF808A0DDF868B0DDF86CA095
:105710007FE00026CDF800A01A9FDDF86CA000E025
:105720000136009B9E4280F260810024D8F8083048
:10573000A342F5DDD8F8003053F824100BFB061116
:1057400009EBC1010AFB064507EBC505DDE914239A
:10575000D1E90001FAF7D8FEC5E900010134E5E717
:105760000026CDF800A01A9FDDF86CA000E00136FD
:10577000009B9E4280F239810024D8F80830A34271
:10578000F5DD0AFB064507EBC505D8F8003053F8F0
:1057900024100BFB061109EBC101DDE91423D1E94B
:1057A0000001FAF7B1FE02460B46D5E90001FAF70F
:1057B000F5FCC5E900010134DFE70026CDF800A0C3
:1057C0001A9FDDF86CA000E00136009B9E4280F23B
:1057D0000C810024D8F80830A342F5DDD8F8003059
:1057E00053F824100BFB061109EBC101DDE914236A
:1057F000D1E90001FAF788FE0AFB064507EBC5056B
:10580000D5E90023FAF7C8FCC5E900010134E1E756
:105810000134029B9C4280F2E8800025D8F80830D1
:10582000AB42F5DDD8F8003053F8251007FB041122
:1058300009EBC101DDE91423D1E90001FAF764FEA7
:10584000CDE900010AFB04560BEBC606DDE918237F
:10585000D6E90001FAF758FE02460B46DDE90001E1
:10586000FAF79CFCC6E900010135D7E70026CDF820
:1058700000A01A9FDDF86CA000E00136009B9E425C
:1058800080F2B3800025D8F80830AB42F5DDD8F8B7
:10589000003053F825300BFB063109EBC1010AFB40
:1058A000063307EBC304DDE91423D1E90001FAF75D
:1058B0002BFEC4E900010135E5E70026CDF800A084
:1058C0001A9FDDF86CA000E00136009B9E4280F23A
:1058D0008C800025D8F80830AB42F5DDD8F80030D0
:1058E00053F825400BFB064109EBC101DDE9142308
:1058F000D1E90001FAF708FE0AFB06F2531907EB9B
:10590000C303144407EBC404D3E90023FAF746FCAD
:10591000C4E900010135DDE70026CDF800A01A9F9B
:10592000DDF86CA000E00136009B9E425DDA0025A8
:10593000D8F80830AB42F6DDD8F8003053F82540EF
:105940000BFB064109EBC101DDE91423D1E900019C
:10595000FAF7DAFD0AFB06F2531907EBC303144406
:1059600007EBC404D3E90023FAF716FCC4E90001ED
:105970000135DDE7AFF30080D97DDAF5D0F2BE3A2C
:105980000000F03F0134029B9C422DDA0026D8F83B
:105990000830B342F6DDD8F8003053F826500AFB41
:1059A00004510BEBC101DDE91423D1E90001FAF741
:1059B000ABFDCDE900011B9B03FB04F7B91909EB13
:1059C000C101DDE91823D1E90001FAF79DFD3D444D
:1059D00009EBC50502460B46DDE90001FAF7DEFBDF
:1059E000C5E900010136D2E7D946B9F1000F02D06E
:1059F000484614F076FE00200BB0BDE8F08F00BFE3
:105A0000D0F800C0ACF1480CDCF800C06044FFF7EF
:105A1000F3BA10B5836844680A4604FB03F10069D1
:105A200010F0FAFD10BDD0F800C0ACF1200CDCF88D
:105A300000C06044FFF7EDBF10B50469C36801FB07
:105A400003F3816804EBC30010F0E6FD10BDD0F84D
:105A500000C0ACF1240CDCF800C06044FFF7ECBFE0
:105A600010B5036984680A4653F82410806910F061
:105A7000D3FD10BDD0F800C0ACF1200CDCF800C0A4
:105A80006044FFF7EDBF000000B585B001F036FAC5
:105A90000123029340F23D230193054B0093054BF4
:105AA00000220B2101F0ACF905B05DF804FB00BF4A
:105AB00020FB010828FA0108D0F800C0ACF15C0C0A
:105AC000DCF800C06044FFF7DFBF0000000000000A
:105AD00010B584B043697BB153F8213002694C1C86
